{
  "_format": "hh3-artifact-1",
  "contractName": "AgentRegistry",
  "sourceName": "contracts/AgentRegistry.sol",
  "abi": [
    {
      "inputs": [],
      "stateMutability": "nonpayable",
      "type": "constructor"
    },
    {
      "anonymous": false,
      "inputs": [
        {
          "indexed": true,
          "internalType": "address",
          "name": "agentAddress",
          "type": "address"
        },
        {
          "indexed": false,
          "internalType": "string",
          "name": "metadata",
          "type": "string"
        },
        {
          "indexed": false,
          "internalType": "uint256",
          "name": "timestamp",
          "type": "uint256"
        }
      ],
      "name": "AgentRegistered",
      "type": "event"
    },
    {
      "anonymous": false,
      "inputs": [
        {
          "indexed": true,
          "internalType": "address",
          "name": "agentAddress",
          "type": "address"
        },
        {
          "indexed": false,
          "internalType": "bool",
          "name": "active",
          "type": "bool"
        }
      ],
      "name": "AgentStatusChanged",
      "type": "event"
    },
    {
      "anonymous": false,
      "inputs": [
        {
          "indexed": true,
          "internalType": "address",
          "name": "agentAddress",
          "type": "address"
        },
        {
          "indexed": false,
          "internalType": "string",
          "name": "metadata",
          "type": "string"
        }
      ],
      "name": "AgentUpdated",
      "type": "event"
    },
    {
      "anonymous": false,
      "inputs": [
        {
          "indexed": true,
          "internalType": "address",
          "name": "agentAddress",
          "type": "address"
        },
        {
          "indexed": false,
          "internalType": "uint256",
          "name": "oldReputation",
          "type": "uint256"
        },
        {
          "indexed": false,
          "internalType": "uint256",
          "name": "newReputation",
          "type": "uint256"
        }
      ],
      "name": "ReputationUpdated",
      "type": "event"
    },
    {
      "anonymous": false,
      "inputs": [
        {
          "indexed": true,
          "internalType": "bytes32",
          "name": "serviceId",
          "type": "bytes32"
        },
        {
          "indexed": true,
          "internalType": "address",
          "name": "provider",
          "type": "address"
        },
        {
          "indexed": false,
          "internalType": "uint256",
          "name": "price",
          "type": "uint256"
        }
      ],
      "name": "ServiceRegistered",
      "type": "event"
    },
    {
      "anonymous": false,
      "inputs": [
        {
          "indexed": true,
          "internalType": "bytes32",
          "name": "serviceId",
          "type": "bytes32"
        },
        {
          "indexed": false,
          "internalType": "bool",
          "name": "available",
          "type": "bool"
        }
      ],
      "name": "ServiceUpdated",
      "type": "event"
    },
    {
      "anonymous": false,
      "inputs": [
        {
          "indexed": true,
          "internalType": "address",
          "name": "agentAddress",
          "type": "address"
        },
        {
          "indexed": false,
          "internalType": "bool",
          "name": "success",
          "type": "bool"
        },
        {
          "indexed": false,
          "internalType": "uint256",
          "name": "newTxCount",
          "type": "uint256"
        }
      ],
      "name": "TransactionRecorded",
      "type": "event"
    },
    {
      "inputs": [],
      "name": "admin",
      "outputs": [
        {
          "internalType": "address",
          "name": "",
          "type": "address"
        }
      ],
      "stateMutability": "view",
      "type": "function"
    },
    {
      "inputs": [],
      "name": "agentCount",
      "outputs": [
        {
          "internalType": "uint256",
          "name": "",
          "type": "uint256"
        }
      ],
      "stateMutability": "view",
      "type": "function"
    },
    {
      "inputs": [
        {
          "internalType": "uint256",
          "name": "",
          "type": "uint256"
        }
      ],
      "name": "agentList",
      "outputs": [
        {
          "internalType": "address",
          "name": "",
          "type": "address"
        }
      ],
      "stateMutability": "view",
      "type": "function"
    },
    {
      "inputs": [
        {
          "internalType": "address",
          "name": "",
          "type": "address"
        }
      ],
      "name": "agents",
      "outputs": [
        {
          "internalType": "address",
          "name": "wallet",
          "type": "address"
        },
        {
          "internalType": "string",
          "name": "metadata",
          "type": "string"
        },
        {
          "internalType": "uint256",
          "name": "reputation",
          "type": "uint256"
        },
        {
          "internalType": "uint256",
          "name": "transactionCount",
          "type": "uint256"
        },
        {
          "internalType": "uint256",
          "name": "successfulTxCount",
          "type": "uint256"
        },
        {
          "internalType": "uint256",
          "name": "registeredAt",
          "type": "uint256"
        },
        {
          "internalType": "bool",
          "name": "active",
          "type": "bool"
        }
      ],
      "stateMutability": "view",
      "type": "function"
    },
    {
      "inputs": [],
      "name": "getActiveAgents",
      "outputs": [
        {
          "internalType": "address[]",
          "name": "",
          "type": "address[]"
        }
      ],
      "stateMutability": "view",
      "type": "function"
    },
    {
      "inputs": [
        {
          "internalType": "address",
          "name": "agentAddress",
          "type": "address"
        }
      ],
      "name": "getAgent",
      "outputs": [
        {
          "components": [
            {
              "internalType": "address",
              "name": "wallet",
              "type": "address"
            },
            {
              "internalType": "string",
              "name": "metadata",
              "type": "string"
            },
            {
              "internalType": "uint256",
              "name": "reputation",
              "type": "uint256"
            },
            {
              "internalType": "uint256",
              "name": "transactionCount",
              "type": "uint256"
            },
            {
              "internalType": "uint256",
              "name": "successfulTxCount",
              "type": "uint256"
            },
            {
              "internalType": "uint256",
              "name": "registeredAt",
              "type": "uint256"
            },
            {
              "internalType": "bool",
              "name": "active",
              "type": "bool"
            },
            {
              "internalType": "string[]",
              "name": "services",
              "type": "string[]"
            }
          ],
          "internalType": "struct AgentRegistry.Agent",
          "name": "",
          "type": "tuple"
        }
      ],
      "stateMutability": "view",
      "type": "function"
    },
    {
      "inputs": [
        {
          "internalType": "address",
          "name": "provider",
          "type": "address"
        }
      ],
      "name": "getAgentServices",
      "outputs": [
        {
          "internalType": "bytes32[]",
          "name": "",
          "type": "bytes32[]"
        }
      ],
      "stateMutability": "view",
      "type": "function"
    },
    {
      "inputs": [],
      "name": "getAllAgents",
      "outputs": [
        {
          "internalType": "address[]",
          "name": "",
          "type": "address[]"
        }
      ],
      "stateMutability": "view",
      "type": "function"
    },
    {
      "inputs": [
        {
          "internalType": "address",
          "name": "agentAddress",
          "type": "address"
        }
      ],
      "name": "getReputation",
      "outputs": [
        {
          "internalType": "uint256",
          "name": "",
          "type": "uint256"
        }
      ],
      "stateMutability": "view",
      "type": "function"
    },
    {
      "inputs": [
        {
          "internalType": "address",
          "name": "provider",
          "type": "address"
        },
        {
          "internalType": "string",
          "name": "serviceId",
          "type": "string"
        }
      ],
      "name": "getService",
      "outputs": [
        {
          "components": [
            {
              "internalType": "string",
              "name": "serviceId",
              "type": "string"
            },
            {
              "internalType": "address",
              "name": "provider",
              "type": "address"
            },
            {
              "internalType": "uint256",
              "name": "price",
              "type": "uint256"
            },
            {
              "internalType": "string",
              "name": "description",
              "type": "string"
            },
            {
              "internalType": "bool",
              "name": "available",
              "type": "bool"
            }
          ],
          "internalType": "struct AgentRegistry.ServiceOffering",
          "name": "",
          "type": "tuple"
        }
      ],
      "stateMutability": "view",
      "type": "function"
    },
    {
      "inputs": [
        {
          "internalType": "address",
          "name": "agentAddress",
          "type": "address"
        }
      ],
      "name": "getSuccessRate",
      "outputs": [
        {
          "internalType": "uint256",
          "name": "",
          "type": "uint256"
        }
      ],
      "stateMutability": "view",
      "type": "function"
    },
    {
      "inputs": [
        {
          "internalType": "address",
          "name": "",
          "type": "address"
        },
        {
          "internalType": "uint256",
          "name": "",
          "type": "uint256"
        }
      ],
      "name": "providerServices",
      "outputs": [
        {
          "internalType": "bytes32",
          "name": "",
          "type": "bytes32"
        }
      ],
      "stateMutability": "view",
      "type": "function"
    },
    {
      "inputs": [
        {
          "internalType": "string",
          "name": "metadata",
          "type": "string"
        }
      ],
      "name": "registerAgent",
      "outputs": [],
      "stateMutability": "nonpayable",
      "type": "function"
    },
    {
      "inputs": [
        {
          "internalType": "string",
          "name": "serviceId",
          "type": "string"
        },
        {
          "internalType": "uint256",
          "name": "price",
          "type": "uint256"
        },
        {
          "internalType": "string",
          "name": "description",
          "type": "string"
        }
      ],
      "name": "registerService",
      "outputs": [],
      "stateMutability": "nonpayable",
      "type": "function"
    },
    {
      "inputs": [],
      "name": "serviceCount",
      "outputs": [
        {
          "internalType": "uint256",
          "name": "",
          "type": "uint256"
        }
      ],
      "stateMutability": "view",
      "type": "function"
    },
    {
      "inputs": [
        {
          "internalType": "bytes32",
          "name": "",
          "type": "bytes32"
        }
      ],
      "name": "services",
      "outputs": [
        {
          "internalType": "string",
          "name": "serviceId",
          "type": "string"
        },
        {
          "internalType": "address",
          "name": "provider",
          "type": "address"
        },
        {
          "internalType": "uint256",
          "name": "price",
          "type": "uint256"
        },
        {
          "internalType": "string",
          "name": "description",
          "type": "string"
        },
        {
          "internalType": "bool",
          "name": "available",
          "type": "bool"
        }
      ],
      "stateMutability": "view",
      "type": "function"
    },
    {
      "inputs": [
        {
          "internalType": "bool",
          "name": "active",
          "type": "bool"
        }
      ],
      "name": "setActiveStatus",
      "outputs": [],
      "stateMutability": "nonpayable",
      "type": "function"
    },
    {
      "inputs": [
        {
          "internalType": "address",
          "name": "newAdmin",
          "type": "address"
        }
      ],
      "name": "transferAdmin",
      "outputs": [],
      "stateMutability": "nonpayable",
      "type": "function"
    },
    {
      "inputs": [
        {
          "internalType": "string",
          "name": "metadata",
          "type": "string"
        }
      ],
      "name": "updateMetadata",
      "outputs": [],
      "stateMutability": "nonpayable",
      "type": "function"
    },
    {
      "inputs": [
        {
          "internalType": "address",
          "name": "agentAddress",
          "type": "address"
        },
        {
          "internalType": "bool",
          "name": "success",
          "type": "bool"
        }
      ],
      "name": "updateReputation",
      "outputs": [],
      "stateMutability": "nonpayable",
      "type": "function"
    },
    {
      "inputs": [
        {
          "internalType": "string",
          "name": "serviceId",
          "type": "string"
        },
        {
          "internalType": "bool",
          "name": "available",
          "type": "bool"
        }
      ],
      "name": "updateServiceAvailability",
      "outputs": [],
      "stateMutability": "nonpayable",
      "type": "function"
    }
  ],
  "bytecode": "0x6080604052348015600f57600080fd5b50600080546001600160a01b0319163317815560018190556002556121a0806100396000396000f3fe608060405234801561001057600080fd5b50600436106101375760003560e01c8063918b5be1116100b8578063e2c13e321161007c578063e2c13e32146102ad578063ec7404b1146102c0578063ed2f1bb4146102d3578063f851a440146102e6578063fb3551ff146102f9578063fd66091e1461031957600080fd5b8063918b5be11461023f5780639c89a0e214610252578063aa56a3821461027e578063b7dc128414610291578063cb5103731461029a57600080fd5b80632f80c54f116100ff5780632f80c54f146101c45780635868b5ac146101ef57806375829def1461020f578063860e4ac61461022257806386b909fd1461023757600080fd5b806303731b9e1461013c57806306237526146101625780630a790eb71461016b5780630e61d1581461018f5780632d2a9585146101af575b600080fd5b61014f61014a36600461195a565b61033f565b6040519081526020015b60405180910390f35b61014f60025481565b61017e610179366004611984565b610370565b6040516101599594939291906119ed565b6101a261019d366004611ae2565b6104bf565b6040516101599190611b30565b6101c26101bd366004611b9e565b61068d565b005b6101d76101d2366004611984565b610925565b6040516001600160a01b039091168152602001610159565b6102026101fd366004611bdb565b61094f565b6040516101599190611bf6565b6101c261021d366004611bdb565b6109bb565b61022a610aa4565b6040516101599190611c39565b61022a610b06565b6101c261024d366004611b9e565b610c8a565b61014f610260366004611bdb565b6001600160a01b031660009081526003602052604090206002015490565b6101c261028c366004611c7a565b610d66565b61014f60015481565b61014f6102a8366004611bdb565b610f73565b6101c26102bb366004611cfc565b611197565b6101c26102ce366004611d2f565b611358565b6101c26102e1366004611d4a565b6113df565b6000546101d7906001600160a01b031681565b61030c610307366004611bdb565b611506565b6040516101599190611deb565b61032c610327366004611bdb565b6117a8565b6040516101599796959493929190611e7e565b6006602052816000526040600020818154811061035b57600080fd5b90600052602060002001600091509150505481565b60056020526000908152604090208054819061038b90611ece565b80601f01602080910402602001604051908101604052809291908181526020018280546103b790611ece565b80156104045780601f106103d957610100808354040283529160200191610404565b820191906000526020600020905b8154815290600101906020018083116103e757829003601f168201915b505050506001830154600284015460038501805494956001600160a01b03909316949193509061043390611ece565b80601f016020809104026020016040519081016040528092919081815260200182805461045f90611ece565b80156104ac5780601f10610481576101008083540402835291602001916104ac565b820191906000526020600020905b81548152906001019060200180831161048f57829003601f168201915b5050506004909301549192505060ff1685565b6040805160a0810182526060808252600060208301819052928201839052808201526080810191909152600083836040516020016104fe929190611f08565b60408051601f198184030181528282528051602091820120600081815260059092529082902060a0840190925281549093508290829061053d90611ece565b80601f016020809104026020016040519081016040528092919081815260200182805461056990611ece565b80156105b65780601f1061058b576101008083540402835291602001916105b6565b820191906000526020600020905b81548152906001019060200180831161059957829003601f168201915b505050918352505060018201546001600160a01b03166020820152600282015460408201526003820180546060909201916105f090611ece565b80601f016020809104026020016040519081016040528092919081815260200182805461061c90611ece565b80156106695780601f1061063e57610100808354040283529160200191610669565b820191906000526020600020905b81548152906001019060200180831161064c57829003601f168201915b50505091835250506004919091015460ff1615156020909101529150505b92915050565b336000908152600360205260409020546001600160a01b0316156107025760405162461bcd60e51b815260206004820152602160248201527f4167656e7452656769737472793a20616c7265616479207265676973746572656044820152601960fa1b60648201526084015b60405180910390fd5b60008151116107535760405162461bcd60e51b815260206004820181905260248201527f4167656e7452656769737472793a206d6574616461746120726571756972656460448201526064016106f9565b604051806101000160405280336001600160a01b031681526020018281526020016101f481526020016000815260200160008152602001428152602001600115158152602001600067ffffffffffffffff8111156107b3576107b3611a3d565b6040519080825280602002602001820160405280156107e657816020015b60608152602001906001900390816107d15790505b509052336000908152600360209081526040909120825181546001600160a01b0319166001600160a01b0390911617815590820151600182019061082a9082611f8f565b5060408201516002820155606082015160038201556080820151600482015560a0820151600582015560c082015160068201805460ff191691151591909117905560e08201518051610886916007840191602090910190611879565b5050600480546001818101835560009283527f8a35acfbc15ff81a39ae7d344fd709f28e8600b4aa8c65c6b64bfe7fe36bd19b90910180546001600160a01b0319163317905580549250906108da83612064565b9190505550336001600160a01b03167f023c5efe572c42192271951adb0e77f97d7fc84bc761d026189ac08617346824824260405161091a92919061207d565b60405180910390a250565b6004818154811061093557600080fd5b6000918252602090912001546001600160a01b0316905081565b6001600160a01b0381166000908152600660209081526040918290208054835181840281018401909452808452606093928301828280156109af57602002820191906000526020600020905b81548152602001906001019080831161099b575b50505050509050919050565b6000546001600160a01b03163314610a205760405162461bcd60e51b815260206004820152602260248201527f4167656e7452656769737472793a2063616c6c6572206973206e6f742061646d60448201526134b760f11b60648201526084016106f9565b6001600160a01b038116610a825760405162461bcd60e51b8152602060048201526024808201527f4167656e7452656769737472793a20696e76616c69642061646d696e206164646044820152637265737360e01b60648201526084016106f9565b600080546001600160a01b0319166001600160a01b0392909216919091179055565b60606004805480602002602001604051908101604052809291908181526020018280548015610afc57602002820191906000526020600020905b81546001600160a01b03168152600190910190602001808311610ade575b5050505050905090565b60606000805b600454811015610b73576003600060048381548110610b2d57610b2d61209f565b60009182526020808320909101546001600160a01b0316835282019290925260400190206006015460ff1615610b6b5781610b6781612064565b9250505b600101610b0c565b5060008167ffffffffffffffff811115610b8f57610b8f611a3d565b604051908082528060200260200182016040528015610bb8578160200160208202803683370190505b5090506000805b600454811015610c81576003600060048381548110610be057610be061209f565b60009182526020808320909101546001600160a01b0316835282019290925260400190206006015460ff1615610c795760048181548110610c2357610c2361209f565b9060005260206000200160009054906101000a90046001600160a01b0316838381518110610c5357610c5361209f565b6001600160a01b039092166020928302919091019091015281610c7581612064565b9250505b600101610bbf565b50909392505050565b336000908152600360205260409020546001600160a01b0316610cbf5760405162461bcd60e51b81526004016106f9906120b5565b6000815111610d105760405162461bcd60e51b815260206004820181905260248201527f4167656e7452656769737472793a206d6574616461746120726571756972656460448201526064016106f9565b336000908152600360205260409020600101610d2c8282611f8f565b50336001600160a01b03167fb915c10d80f3a5a64f9cf6b674511d7c794c3419680d92ddf18339ae793ffb578260405161091a91906120f8565b336000908152600360205260409020546001600160a01b0316610d9b5760405162461bcd60e51b81526004016106f9906120b5565b60003384604051602001610db0929190611f08565b60408051601f198184030181529181528151602092830120600081815260059093529120600101549091506001600160a01b031615610e315760405162461bcd60e51b815260206004820152601d60248201527f4167656e7452656769737472793a20736572766963652065786973747300000060448201526064016106f9565b6040805160a081018252858152336020808301919091528183018690526060820185905260016080830152600084815260059091529190912081518190610e789082611f8f565b5060208201516001820180546001600160a01b0319166001600160a01b039092169190911790556040820151600282015560608201516003820190610ebd9082611f8f565b50608091909101516004909101805460ff191691151591909117905533600081815260066020908152604080832080546001818101835591855283852001869055938352600382528220600701805493840181558252902001610f208582611f8f565b5060028054906000610f3183612064565b9091555050604051838152339082907f1bd0bc8e83e4b1ca39e055b0ee51fbde9f6004eef864db76dd1fc7386693eb799060200160405180910390a350505050565b6001600160a01b038082166000908152600360209081526040808320815161010081019092528054909416815260018401805493948594929390929084019190610fbc90611ece565b80601f0160208091040260200160405190810160405280929190818152602001828054610fe890611ece565b80156110355780601f1061100a57610100808354040283529160200191611035565b820191906000526020600020905b81548152906001019060200180831161101857829003601f168201915b50505050508152602001600282015481526020016003820154815260200160048201548152602001600582015481526020016006820160009054906101000a900460ff1615151515815260200160078201805480602002602001604051908101604052809291908181526020016000905b828210156111525783829060005260206000200180546110c590611ece565b80601f01602080910402602001604051908101604052809291908181526020018280546110f190611ece565b801561113e5780601f106111135761010080835404028352916020019161113e565b820191906000526020600020905b81548152906001019060200180831161112157829003601f168201915b5050505050815260200190600101906110a6565b5050505081525050905080606001516000036111715750600092915050565b6060810151608082015161118690606461210b565b6111909190612122565b9392505050565b6001600160a01b03808316600090815260036020526040902080549091166112015760405162461bcd60e51b815260206004820152601e60248201527f4167656e7452656769737472793a206167656e74206e6f7420666f756e64000060448201526064016106f9565b600281015460038201805490600061121883612064565b919050555082156112855760048201805490600061123583612064565b91905055506103e882600201541015611280576103e88260020154600a61125c9190612144565b1161127657600282015461127190600a612144565b61127a565b6103e85b60028301555b6112b0565b60148260020154106112a757601482600201546112a29190612157565b6112aa565b60005b60028301555b836001600160a01b03167f5b88a2e3fc1a53234357ab78c104df11c33ccfa79886793654565ad70b8afb6e8284600201546040516112f8929190918252602082015260400190565b60405180910390a2836001600160a01b03167f96002c2c80e0fc77efd75da3849c478b0a4b48916ad69fdf903fb31ce9dc8cf584846003015460405161134a9291909115158252602082015260400190565b60405180910390a250505050565b336000908152600360205260409020546001600160a01b031661138d5760405162461bcd60e51b81526004016106f9906120b5565b33600081815260036020908152604091829020600601805460ff191685151590811790915591519182527f87a2f5d6264ebbda5bf1278472c7cd45819bf76a99da8075ea9768d2e827050f910161091a565b336000908152600360205260409020546001600160a01b03166114145760405162461bcd60e51b81526004016106f9906120b5565b60003383604051602001611429929190611f08565b60408051601f198184030181529181528151602092830120600081815260059093529120600101549091506001600160a01b031633146114ab5760405162461bcd60e51b815260206004820181905260248201527f4167656e7452656769737472793a206e6f742073657276696365206f776e657260448201526064016106f9565b600081815260056020908152604091829020600401805460ff1916851515908117909155915191825282917fcd5d34cb2d6fb40f69193061a0117b590343c9d222ad7bd48a2590c6c936b183910160405180910390a2505050565b61155960405180610100016040528060006001600160a01b031681526020016060815260200160008152602001600081526020016000815260200160008152602001600015158152602001606081525090565b6001600160a01b03828116600090815260036020526040902054166115c05760405162461bcd60e51b815260206004820152601e60248201527f4167656e7452656769737472793a206167656e74206e6f7420666f756e64000060448201526064016106f9565b6001600160a01b0380831660009081526003602090815260409182902082516101008101909352805490931682526001830180549293929184019161160490611ece565b80601f016020809104026020016040519081016040528092919081815260200182805461163090611ece565b801561167d5780601f106116525761010080835404028352916020019161167d565b820191906000526020600020905b81548152906001019060200180831161166057829003601f168201915b50505050508152602001600282015481526020016003820154815260200160048201548152602001600582015481526020016006820160009054906101000a900460ff1615151515815260200160078201805480602002602001604051908101604052809291908181526020016000905b8282101561179a57838290600052602060002001805461170d90611ece565b80601f016020809104026020016040519081016040528092919081815260200182805461173990611ece565b80156117865780601f1061175b57610100808354040283529160200191611786565b820191906000526020600020905b81548152906001019060200180831161176957829003601f168201915b5050505050815260200190600101906116ee565b505050915250909392505050565b600360205260009081526040902080546001820180546001600160a01b0390921692916117d490611ece565b80601f016020809104026020016040519081016040528092919081815260200182805461180090611ece565b801561184d5780601f106118225761010080835404028352916020019161184d565b820191906000526020600020905b81548152906001019060200180831161183057829003601f168201915b505050600284015460038501546004860154600587015460069097015495969295919450925060ff1687565b8280548282559060005260206000209081019282156118bf579160200282015b828111156118bf57825182906118af9082611f8f565b5091602001919060010190611899565b506118cb9291506118cf565b5090565b808211156118cb5760006118e382826118ec565b506001016118cf565b5080546118f890611ece565b6000825580601f10611908575050565b601f0160209004906000526020600020908101906119269190611929565b50565b5b808211156118cb576000815560010161192a565b80356001600160a01b038116811461195557600080fd5b919050565b6000806040838503121561196d57600080fd5b6119768361193e565b946020939093013593505050565b60006020828403121561199657600080fd5b5035919050565b60005b838110156119b85781810151838201526020016119a0565b50506000910152565b600081518084526119d981602086016020860161199d565b601f01601f19169290920160200192915050565b60a081526000611a0060a08301886119c1565b6001600160a01b0387166020840152604083018690528281036060840152611a2881866119c1565b91505082151560808301529695505050505050565b634e487b7160e01b600052604160045260246000fd5b600082601f830112611a6457600080fd5b813567ffffffffffffffff811115611a7e57611a7e611a3d565b604051601f8201601f19908116603f0116810167ffffffffffffffff81118282101715611aad57611aad611a3d565b604052818152838201602001851015611ac557600080fd5b816020850160208301376000918101602001919091529392505050565b60008060408385031215611af557600080fd5b611afe8361193e565b9150602083013567ffffffffffffffff811115611b1a57600080fd5b611b2685828601611a53565b9150509250929050565b602081526000825160a06020840152611b4c60c08401826119c1565b905060018060a01b036020850151166040840152604084015160608401526060840151601f19848303016080850152611b8582826119c1565b9150506080840151151560a08401528091505092915050565b600060208284031215611bb057600080fd5b813567ffffffffffffffff811115611bc757600080fd5b611bd384828501611a53565b949350505050565b600060208284031215611bed57600080fd5b6111908261193e565b602080825282518282018190526000918401906040840190835b81811015611c2e578351835260209384019390920191600101611c10565b509095945050505050565b602080825282518282018190526000918401906040840190835b81811015611c2e5783516001600160a01b0316835260209384019390920191600101611c53565b600080600060608486031215611c8f57600080fd5b833567ffffffffffffffff811115611ca657600080fd5b611cb286828701611a53565b93505060208401359150604084013567ffffffffffffffff811115611cd657600080fd5b611ce286828701611a53565b9150509250925092565b8035801515811461195557600080fd5b60008060408385031215611d0f57600080fd5b611d188361193e565b9150611d2660208401611cec565b90509250929050565b600060208284031215611d4157600080fd5b61119082611cec565b60008060408385031215611d5d57600080fd5b823567ffffffffffffffff811115611d7457600080fd5b611d8085828601611a53565b925050611d2660208401611cec565b600082825180855260208501945060208160051b8301016020850160005b83811015611ddf57601f19858403018852611dc98383516119c1565b6020988901989093509190910190600101611dad565b50909695505050505050565b602080825282516001600160a01b0316828201528201516101006040830152600090611e1b6101208401826119c1565b90506040840151606084015260608401516080840152608084015160a084015260a084015160c084015260c0840151611e5860e085018215159052565b5060e0840151838203601f1901610100850152611e758282611d8f565b95945050505050565b6001600160a01b038816815260e060208201819052600090611ea2908301896119c1565b6040830197909752506060810194909452608084019290925260a0830152151560c09091015292915050565b600181811c90821680611ee257607f821691505b602082108103611f0257634e487b7160e01b600052602260045260246000fd5b50919050565b6bffffffffffffffffffffffff198360601b16815260008251611f3281601485016020870161199d565b919091016014019392505050565b601f821115611f8a57806000526020600020601f840160051c81016020851015611f675750805b601f840160051c820191505b81811015611f875760008155600101611f73565b50505b505050565b815167ffffffffffffffff811115611fa957611fa9611a3d565b611fbd81611fb78454611ece565b84611f40565b6020601f821160018114611ff15760008315611fd95750848201515b600019600385901b1c1916600184901b178455611f87565b600084815260208120601f198516915b828110156120215787850151825560209485019460019092019101612001565b508482101561203f5786840151600019600387901b60f8161c191681555b50505050600190811b01905550565b634e487b7160e01b600052601160045260246000fd5b6000600182016120765761207661204e565b5060010190565b60408152600061209060408301856119c1565b90508260208301529392505050565b634e487b7160e01b600052603260045260246000fd5b60208082526023908201527f4167656e7452656769737472793a206167656e74206e6f7420726567697374656040820152621c995960ea1b606082015260800190565b60208152600061119060208301846119c1565b80820281158282048414176106875761068761204e565b60008261213f57634e487b7160e01b600052601260045260246000fd5b500490565b808201808211156106875761068761204e565b818103818111156106875761068761204e56fea26469706673582212206d60d243320ce4bf499c88ee087475fb0d7f6bb35bd4669c3fd1317d0e14227b64736f6c634300081c0033",
  "linkReferences": {},
  "deployedLinkReferences": {},
  "immutableReferences": {},
  "inputSourceName": "project/contracts/AgentRegistry.sol",
  "buildInfoId": "solc-0_8_28-862ef7ae28f1b6f573f7306c7b33716a99eece7e"
}