{
  "_format": "hh3-artifact-1",
  "contractName": "AgentWallet",
  "sourceName": "contracts/AgentWallet.sol",
  "abi": [
    {
      "inputs": [],
      "stateMutability": "nonpayable",
      "type": "constructor"
    },
    {
      "anonymous": false,
      "inputs": [
        {
          "indexed": true,
          "internalType": "bytes32",
          "name": "decisionHash",
          "type": "bytes32"
        },
        {
          "indexed": true,
          "internalType": "address",
          "name": "payee",
          "type": "address"
        },
        {
          "indexed": false,
          "internalType": "uint256",
          "name": "amount",
          "type": "uint256"
        },
        {
          "indexed": false,
          "internalType": "bool",
          "name": "success",
          "type": "bool"
        }
      ],
      "name": "DecisionExecuted",
      "type": "event"
    },
    {
      "anonymous": false,
      "inputs": [
        {
          "indexed": true,
          "internalType": "bytes32",
          "name": "decisionHash",
          "type": "bytes32"
        },
        {
          "indexed": true,
          "internalType": "address",
          "name": "executor",
          "type": "address"
        },
        {
          "indexed": false,
          "internalType": "string",
          "name": "ipfsProof",
          "type": "string"
        },
        {
          "indexed": false,
          "internalType": "uint256",
          "name": "timestamp",
          "type": "uint256"
        }
      ],
      "name": "DecisionLogged",
      "type": "event"
    },
    {
      "anonymous": false,
      "inputs": [
        {
          "indexed": false,
          "internalType": "bool",
          "name": "paused",
          "type": "bool"
        }
      ],
      "name": "EmergencyPause",
      "type": "event"
    },
    {
      "anonymous": false,
      "inputs": [
        {
          "indexed": true,
          "internalType": "address",
          "name": "previousOwner",
          "type": "address"
        },
        {
          "indexed": true,
          "internalType": "address",
          "name": "newOwner",
          "type": "address"
        }
      ],
      "name": "OwnershipTransferred",
      "type": "event"
    },
    {
      "anonymous": false,
      "inputs": [
        {
          "indexed": true,
          "internalType": "address",
          "name": "token",
          "type": "address"
        },
        {
          "indexed": false,
          "internalType": "uint256",
          "name": "limit",
          "type": "uint256"
        }
      ],
      "name": "SpendingLimitSet",
      "type": "event"
    },
    {
      "anonymous": false,
      "inputs": [
        {
          "indexed": true,
          "internalType": "uint256",
          "name": "recordId",
          "type": "uint256"
        },
        {
          "indexed": true,
          "internalType": "bytes32",
          "name": "decisionHash",
          "type": "bytes32"
        },
        {
          "indexed": true,
          "internalType": "address",
          "name": "to",
          "type": "address"
        },
        {
          "indexed": false,
          "internalType": "uint256",
          "name": "value",
          "type": "uint256"
        },
        {
          "indexed": false,
          "internalType": "string",
          "name": "category",
          "type": "string"
        },
        {
          "indexed": false,
          "internalType": "bool",
          "name": "success",
          "type": "bool"
        }
      ],
      "name": "TransactionRecorded",
      "type": "event"
    },
    {
      "inputs": [
        {
          "internalType": "bytes32",
          "name": "",
          "type": "bytes32"
        }
      ],
      "name": "decisions",
      "outputs": [
        {
          "internalType": "bytes32",
          "name": "decisionHash",
          "type": "bytes32"
        },
        {
          "internalType": "uint256",
          "name": "timestamp",
          "type": "uint256"
        },
        {
          "internalType": "address",
          "name": "executor",
          "type": "address"
        },
        {
          "internalType": "string",
          "name": "ipfsProof",
          "type": "string"
        },
        {
          "internalType": "bool",
          "name": "executed",
          "type": "bool"
        },
        {
          "internalType": "uint256",
          "name": "amount",
          "type": "uint256"
        },
        {
          "internalType": "address",
          "name": "payee",
          "type": "address"
        }
      ],
      "stateMutability": "view",
      "type": "function"
    },
    {
      "inputs": [],
      "name": "getBalance",
      "outputs": [
        {
          "internalType": "uint256",
          "name": "",
          "type": "uint256"
        }
      ],
      "stateMutability": "view",
      "type": "function"
    },
    {
      "inputs": [
        {
          "internalType": "bytes32",
          "name": "hash",
          "type": "bytes32"
        }
      ],
      "name": "getDecision",
      "outputs": [
        {
          "components": [
            {
              "internalType": "bytes32",
              "name": "decisionHash",
              "type": "bytes32"
            },
            {
              "internalType": "uint256",
              "name": "timestamp",
              "type": "uint256"
            },
            {
              "internalType": "address",
              "name": "executor",
              "type": "address"
            },
            {
              "internalType": "string",
              "name": "ipfsProof",
              "type": "string"
            },
            {
              "internalType": "bool",
              "name": "executed",
              "type": "bool"
            },
            {
              "internalType": "uint256",
              "name": "amount",
              "type": "uint256"
            },
            {
              "internalType": "address",
              "name": "payee",
              "type": "address"
            }
          ],
          "internalType": "struct AgentWallet.Decision",
          "name": "",
          "type": "tuple"
        }
      ],
      "stateMutability": "view",
      "type": "function"
    },
    {
      "inputs": [
        {
          "internalType": "uint256",
          "name": "index",
          "type": "uint256"
        }
      ],
      "name": "getTransaction",
      "outputs": [
        {
          "components": [
            {
              "internalType": "bytes32",
              "name": "decisionHash",
              "type": "bytes32"
            },
            {
              "internalType": "uint256",
              "name": "timestamp",
              "type": "uint256"
            },
            {
              "internalType": "address",
              "name": "to",
              "type": "address"
            },
            {
              "internalType": "uint256",
              "name": "value",
              "type": "uint256"
            },
            {
              "internalType": "bytes",
              "name": "data",
              "type": "bytes"
            },
            {
              "internalType": "bool",
              "name": "success",
              "type": "bool"
            },
            {
              "internalType": "string",
              "name": "category",
              "type": "string"
            }
          ],
          "internalType": "struct AgentWallet.TransactionRecord",
          "name": "",
          "type": "tuple"
        }
      ],
      "stateMutability": "view",
      "type": "function"
    },
    {
      "inputs": [],
      "name": "getTransactionCount",
      "outputs": [
        {
          "internalType": "uint256",
          "name": "",
          "type": "uint256"
        }
      ],
      "stateMutability": "view",
      "type": "function"
    },
    {
      "inputs": [
        {
          "internalType": "bytes32",
          "name": "hash",
          "type": "bytes32"
        },
        {
          "internalType": "string",
          "name": "ipfs",
          "type": "string"
        }
      ],
      "name": "logDecision",
      "outputs": [],
      "stateMutability": "nonpayable",
      "type": "function"
    },
    {
      "inputs": [],
      "name": "owner",
      "outputs": [
        {
          "internalType": "address",
          "name": "",
          "type": "address"
        }
      ],
      "stateMutability": "view",
      "type": "function"
    },
    {
      "inputs": [],
      "name": "paused",
      "outputs": [
        {
          "internalType": "bool",
          "name": "",
          "type": "bool"
        }
      ],
      "stateMutability": "view",
      "type": "function"
    },
    {
      "inputs": [
        {
          "internalType": "address",
          "name": "token",
          "type": "address"
        }
      ],
      "name": "resetSpentAmount",
      "outputs": [],
      "stateMutability": "nonpayable",
      "type": "function"
    },
    {
      "inputs": [
        {
          "internalType": "bool",
          "name": "_paused",
          "type": "bool"
        }
      ],
      "name": "setPaused",
      "outputs": [],
      "stateMutability": "nonpayable",
      "type": "function"
    },
    {
      "inputs": [
        {
          "internalType": "address",
          "name": "token",
          "type": "address"
        },
        {
          "internalType": "uint256",
          "name": "limit",
          "type": "uint256"
        }
      ],
      "name": "setSpendingLimit",
      "outputs": [],
      "stateMutability": "nonpayable",
      "type": "function"
    },
    {
      "inputs": [
        {
          "internalType": "address",
          "name": "",
          "type": "address"
        }
      ],
      "name": "spendingLimits",
      "outputs": [
        {
          "internalType": "uint256",
          "name": "",
          "type": "uint256"
        }
      ],
      "stateMutability": "view",
      "type": "function"
    },
    {
      "inputs": [
        {
          "internalType": "address",
          "name": "",
          "type": "address"
        }
      ],
      "name": "totalSpent",
      "outputs": [
        {
          "internalType": "uint256",
          "name": "",
          "type": "uint256"
        }
      ],
      "stateMutability": "view",
      "type": "function"
    },
    {
      "inputs": [
        {
          "internalType": "uint256",
          "name": "",
          "type": "uint256"
        }
      ],
      "name": "transactionHistory",
      "outputs": [
        {
          "internalType": "bytes32",
          "name": "decisionHash",
          "type": "bytes32"
        },
        {
          "internalType": "uint256",
          "name": "timestamp",
          "type": "uint256"
        },
        {
          "internalType": "address",
          "name": "to",
          "type": "address"
        },
        {
          "internalType": "uint256",
          "name": "value",
          "type": "uint256"
        },
        {
          "internalType": "bytes",
          "name": "data",
          "type": "bytes"
        },
        {
          "internalType": "bool",
          "name": "success",
          "type": "bool"
        },
        {
          "internalType": "string",
          "name": "category",
          "type": "string"
        }
      ],
      "stateMutability": "view",
      "type": "function"
    },
    {
      "inputs": [
        {
          "internalType": "address",
          "name": "newOwner",
          "type": "address"
        }
      ],
      "name": "transferOwnership",
      "outputs": [],
      "stateMutability": "nonpayable",
      "type": "function"
    },
    {
      "inputs": [
        {
          "internalType": "bytes32",
          "name": "hash",
          "type": "bytes32"
        },
        {
          "internalType": "address",
          "name": "payee",
          "type": "address"
        },
        {
          "internalType": "uint256",
          "name": "amount",
          "type": "uint256"
        }
      ],
      "name": "verifyAndExecute",
      "outputs": [
        {
          "internalType": "bool",
          "name": "",
          "type": "bool"
        }
      ],
      "stateMutability": "nonpayable",
      "type": "function"
    },
    {
      "inputs": [
        {
          "internalType": "uint256",
          "name": "amount",
          "type": "uint256"
        }
      ],
      "name": "withdraw",
      "outputs": [],
      "stateMutability": "nonpayable",
      "type": "function"
    },
    {
      "stateMutability": "payable",
      "type": "receive"
    }
  ],
  "bytecode": "0x6080604052348015600f57600080fd5b506000805460ff60a01b1933166001600160a81b03199091161781558052600260205267016345785d8a00007fac33ff75c19e70fe83507db0d683fd3465c996598dc972688b7ace676c89077b55611ae48061006c6000396000f3fe6080604052600436106101025760003560e01c80635c975abb11610095578063a8949b4611610064578063a8949b46146102f0578063c9a815bd1461031d578063d8c578921461033d578063f2fde38b1461036a578063ff9dc6e91461038a57600080fd5b80635c975abb1461024a578063658c820a1461026b5780638d55c610146102985780638da5cb5b146102b857600080fd5b80632e1a7d4d116100d15780632e1a7d4d146101b85780632e7700f0146101d857806333ea3dc8146101ed5780634423802a1461021a57600080fd5b806312065fe01461010e57806316c38b3c146101305780631afd614a14610152578063243e7a871461018557600080fd5b3661010957005b600080fd5b34801561011a57600080fd5b50475b6040519081526020015b60405180910390f35b34801561013c57600080fd5b5061015061014b36600461150a565b6103aa565b005b34801561015e57600080fd5b5061017261016d366004611533565b610435565b6040516101279796959493929190611592565b34801561019157600080fd5b506101a56101a0366004611533565b610512565b60405161012797969594939291906115e7565b3480156101c457600080fd5b506101506101d3366004611533565b610686565b3480156101e457600080fd5b5060035461011d565b3480156101f957600080fd5b5061020d610208366004611533565b6107b1565b6040516101279190611642565b34801561022657600080fd5b5061023a6102353660046116dd565b610a07565b6040519015158152602001610127565b34801561025657600080fd5b5060005461023a90600160a01b900460ff1681565b34801561027757600080fd5b5061011d610286366004611713565b60026020526000908152604090205481565b3480156102a457600080fd5b506101506102b3366004611713565b610f9a565b3480156102c457600080fd5b506000546102d8906001600160a01b031681565b6040516001600160a01b039091168152602001610127565b3480156102fc57600080fd5b5061011d61030b366004611713565b60046020526000908152604090205481565b34801561032957600080fd5b5061015061033836600461172e565b610fde565b34801561034957600080fd5b5061035d610358366004611533565b611061565b6040516101279190611758565b34801561037657600080fd5b50610150610385366004611713565b6111a4565b34801561039657600080fd5b506101506103a53660046117e5565b611283565b6000546001600160a01b031633146103dd5760405162461bcd60e51b81526004016103d4906118a8565b60405180910390fd5b60008054821515600160a01b0260ff60a01b199091161790556040517fb80d1ae5628c2af91424c54c87acfd15016be4bebeef0425b328238702f348319061042a90831515815260200190565b60405180910390a150565b6001602081905260009182526040909120805491810154600282015460038301805492936001600160a01b039092169261046e906118ec565b80601f016020809104026020016040519081016040528092919081815260200182805461049a906118ec565b80156104e75780601f106104bc576101008083540402835291602001916104e7565b820191906000526020600020905b8154815290600101906020018083116104ca57829003601f168201915b5050505060048301546005840154600690940154929360ff909116929091506001600160a01b031687565b6003818154811061052257600080fd5b60009182526020909120600790910201805460018201546002830154600384015460048501805494965092946001600160a01b0390921693909290610566906118ec565b80601f0160208091040260200160405190810160405280929190818152602001828054610592906118ec565b80156105df5780601f106105b4576101008083540402835291602001916105df565b820191906000526020600020905b8154815290600101906020018083116105c257829003601f168201915b5050506005840154600685018054949560ff909216949193509150610603906118ec565b80601f016020809104026020016040519081016040528092919081815260200182805461062f906118ec565b801561067c5780601f106106515761010080835404028352916020019161067c565b820191906000526020600020905b81548152906001019060200180831161065f57829003601f168201915b5050505050905087565b6000546001600160a01b031633146106b05760405162461bcd60e51b81526004016103d4906118a8565b8047101561070a5760405162461bcd60e51b815260206004820152602160248201527f4167656e7457616c6c65743a20696e73756666696369656e742062616c616e636044820152606560f81b60648201526084016103d4565b600080546040516001600160a01b039091169083908381818185875af1925050503d8060008114610757576040519150601f19603f3d011682016040523d82523d6000602084013e61075c565b606091505b50509050806107ad5760405162461bcd60e51b815260206004820152601e60248201527f4167656e7457616c6c65743a207769746864726177616c206661696c6564000060448201526064016103d4565b5050565b6107ff6040518060e00160405280600080191681526020016000815260200160006001600160a01b031681526020016000815260200160608152602001600015158152602001606081525090565b60035482106108505760405162461bcd60e51b815260206004820152601a60248201527f4167656e7457616c6c65743a20696e76616c696420696e64657800000000000060448201526064016103d4565b6003828154811061086357610863611926565b90600052602060002090600702016040518060e001604052908160008201548152602001600182015481526020016002820160009054906101000a90046001600160a01b03166001600160a01b03166001600160a01b03168152602001600382015481526020016004820180546108d9906118ec565b80601f0160208091040260200160405190810160405280929190818152602001828054610905906118ec565b80156109525780601f1061092757610100808354040283529160200191610952565b820191906000526020600020905b81548152906001019060200180831161093557829003601f168201915b5050509183525050600582015460ff161515602082015260068201805460409092019161097e906118ec565b80601f01602080910402602001604051908101604052809291908181526020018280546109aa906118ec565b80156109f75780601f106109cc576101008083540402835291602001916109f7565b820191906000526020600020905b8154815290600101906020018083116109da57829003601f168201915b5050505050815250509050919050565b600080546001600160a01b03163314610a325760405162461bcd60e51b81526004016103d4906118a8565b600054600160a01b900460ff1615610a8c5760405162461bcd60e51b815260206004820152601f60248201527f4167656e7457616c6c65743a20636f6e7472616374206973207061757365640060448201526064016103d4565b600084815260016020819052604090912090810154610aed5760405162461bcd60e51b815260206004820181905260248201527f4167656e7457616c6c65743a206465636973696f6e206e6f74206c6f6767656460448201526064016103d4565b600481015460ff1615610b515760405162461bcd60e51b815260206004820152602660248201527f4167656e7457616c6c65743a206465636973696f6e20616c72656164792065786044820152651958dd5d195960d21b60648201526084016103d4565b6001600160a01b038416610ba75760405162461bcd60e51b815260206004820152601a60248201527f4167656e7457616c6c65743a20696e76616c696420706179656500000000000060448201526064016103d4565b600080527fac33ff75c19e70fe83507db0d683fd3465c996598dc972688b7ace676c89077b5460046020527f17ef568e3e12ab5b9c7254a8d58478811de00f9e6eb34345acd53bf8fd09d3ec54610bff908590611952565b1115610c595760405162461bcd60e51b8152602060048201526024808201527f4167656e7457616c6c65743a207370656e64696e67206c696d697420657863656044820152631959195960e21b60648201526084016103d4565b6004808201805460ff19166001179055600582018490556006820180546001600160a01b0387166001600160a01b031990911617905560008080526020919091527f17ef568e3e12ab5b9c7254a8d58478811de00f9e6eb34345acd53bf8fd09d3ec8054859290610ccb908490611952565b90915550506040516000906001600160a01b0386169085908381818185875af1925050503d8060008114610d1b576040519150601f19603f3d011682016040523d82523d6000602084013e610d20565b606091505b50506040805160e0810182528881524260208083019182526001600160a01b038a8116848601908152606085018b81528651808501885260008082526080880191825289151560a08901528851808a019099526012895271185d5d1bdb9bdb5bdd5cd7dc185e5b595b9d60721b9589019590955260c087019790975260038054600181018255945285517fc2575a0e9e593c00f959f8c92f12db2869c3395a3b0502d05e2516446f71f85b600790950294850190815594517fc2575a0e9e593c00f959f8c92f12db2869c3395a3b0502d05e2516446f71f85c85015590517fc2575a0e9e593c00f959f8c92f12db2869c3395a3b0502d05e2516446f71f85d840180546001600160a01b0319169190931617909155517fc2575a0e9e593c00f959f8c92f12db2869c3395a3b0502d05e2516446f71f85e8201559251939450909290917fc2575a0e9e593c00f959f8c92f12db2869c3395a3b0502d05e2516446f71f85f0190610e9090826119ba565b5060a082015160058201805460ff191691151591909117905560c08201516006820190610ebd90826119ba565b50506040805186815283151560208201526001600160a01b038816925088917f5fba7d6e9242add8b9c2a15993902b861790925a0934ca33dcd3544f3cd5d428910160405180910390a36003546001600160a01b038616908790610f2390600190611a79565b7f4473be1a94dc42250394dc2c56998bcaaa2d6f575282261594e6f403819b3daf8785604051610f8992919091825260606020830181905260129083015271185d5d1bdb9bdb5bdd5cd7dc185e5b595b9d60721b60808301521515604082015260a00190565b60405180910390a495945050505050565b6000546001600160a01b03163314610fc45760405162461bcd60e51b81526004016103d4906118a8565b6001600160a01b0316600090815260046020526040812055565b6000546001600160a01b031633146110085760405162461bcd60e51b81526004016103d4906118a8565b6001600160a01b03821660008181526002602052604090819020839055517fd93de6cb6a222110be7bd3a39523c688a6da5210fa2cfdba51091f8e29c32728906110559084815260200190565b60405180910390a25050565b6040805160e0810182526000808252602082018190529181018290526060808201526080810182905260a0810182905260c0810191909152600082815260016020818152604092839020835160e08101855281548152928101549183019190915260028101546001600160a01b0316928201929092526003820180549192916060840191906110ef906118ec565b80601f016020809104026020016040519081016040528092919081815260200182805461111b906118ec565b80156111685780601f1061113d57610100808354040283529160200191611168565b820191906000526020600020905b81548152906001019060200180831161114b57829003601f168201915b5050509183525050600482015460ff1615156020820152600582015460408201526006909101546001600160a01b031660609091015292915050565b6000546001600160a01b031633146111ce5760405162461bcd60e51b81526004016103d4906118a8565b6001600160a01b0381166112335760405162461bcd60e51b815260206004820152602660248201527f4167656e7457616c6c65743a206e6577206f776e6572206973207a65726f206160448201526564647265737360d01b60648201526084016103d4565b600080546001600160a01b038381166001600160a01b0319831681178455604051919092169283917f8be0079c531659141344cd1fd0a4f28419497f9722a3daafe3b4186f6b6457e09190a35050565b600054600160a01b900460ff16156112dd5760405162461bcd60e51b815260206004820152601f60248201527f4167656e7457616c6c65743a20636f6e7472616374206973207061757365640060448201526064016103d4565b816113355760405162461bcd60e51b815260206004820152602260248201527f4167656e7457616c6c65743a20696e76616c6964206465636973696f6e2068616044820152610e6d60f31b60648201526084016103d4565b60008151116113865760405162461bcd60e51b815260206004820152601e60248201527f4167656e7457616c6c65743a204950465320434944207265717569726564000060448201526064016103d4565b60008281526001602081905260409091200154156113f25760405162461bcd60e51b8152602060048201526024808201527f4167656e7457616c6c65743a206465636973696f6e20616c7265616479206c6f60448201526319d9d95960e21b60648201526084016103d4565b6040805160e081018252838152426020808301918252338385019081526060840186815260006080860181905260a0860181905260c086018190528881526001938490529590952084518155925191830191909155516002820180546001600160a01b0319166001600160a01b039092169190911790559151909190600382019061147d90826119ba565b50608082015160048201805460ff191691151591909117905560a0820151600582015560c090910151600690910180546001600160a01b0319166001600160a01b03909216919091179055604051339083907fdbd4f5f85395c245963272eb97c2cba987a607745a512583a535a03232d3411b906114fe9085904290611a8c565b60405180910390a35050565b60006020828403121561151c57600080fd5b8135801515811461152c57600080fd5b9392505050565b60006020828403121561154557600080fd5b5035919050565b6000815180845260005b8181101561157257602081850181015186830182015201611556565b506000602082860101526020601f19601f83011685010191505092915050565b87815286602082015260018060a01b038616604082015260e0606082015260006115bf60e083018761154c565b94151560808301525060a08101929092526001600160a01b031660c090910152949350505050565b87815286602082015260018060a01b038616604082015284606082015260e06080820152600061161a60e083018661154c565b84151560a084015282810360c0840152611634818561154c565b9a9950505050505050505050565b60208152815160208201526020820151604082015260018060a01b036040830151166060820152606082015160808201526000608083015160e060a084015261168f61010084018261154c565b905060a0840151151560c084015260c0840151601f198483030160e08501526116b8828261154c565b95945050505050565b80356001600160a01b03811681146116d857600080fd5b919050565b6000806000606084860312156116f257600080fd5b83359250611702602085016116c1565b929592945050506040919091013590565b60006020828403121561172557600080fd5b61152c826116c1565b6000806040838503121561174157600080fd5b61174a836116c1565b946020939093013593505050565b60208152815160208201526020820151604082015260018060a01b0360408301511660608201526000606083015160e0608084015261179b61010084018261154c565b90506080840151151560a084015260a084015160c084015260018060a01b0360c08501511660e08401528091505092915050565b634e487b7160e01b600052604160045260246000fd5b600080604083850312156117f857600080fd5b82359150602083013567ffffffffffffffff81111561181657600080fd5b8301601f8101851361182757600080fd5b803567ffffffffffffffff811115611841576118416117cf565b604051601f8201601f19908116603f0116810167ffffffffffffffff81118282101715611870576118706117cf565b60405281815282820160200187101561188857600080fd5b816020840160208301376000602083830101528093505050509250929050565b60208082526024908201527f4167656e7457616c6c65743a2063616c6c6572206973206e6f7420746865206f6040820152633bb732b960e11b606082015260800190565b600181811c9082168061190057607f821691505b60208210810361192057634e487b7160e01b600052602260045260246000fd5b50919050565b634e487b7160e01b600052603260045260246000fd5b634e487b7160e01b600052601160045260246000fd5b808201808211156119655761196561193c565b92915050565b601f8211156119b557806000526020600020601f840160051c810160208510156119925750805b601f840160051c820191505b818110156119b2576000815560010161199e565b50505b505050565b815167ffffffffffffffff8111156119d4576119d46117cf565b6119e8816119e284546118ec565b8461196b565b6020601f821160018114611a1c5760008315611a045750848201515b600019600385901b1c1916600184901b1784556119b2565b600084815260208120601f198516915b82811015611a4c5787850151825560209485019460019092019101611a2c565b5084821015611a6a5786840151600019600387901b60f8161c191681555b50505050600190811b01905550565b818103818111156119655761196561193c565b604081526000611a9f604083018561154c565b9050826020830152939250505056fea2646970667358221220e3c13a4ab883f69c051463b1f41f749c34da554f1cdc6d595f1d4065f04d424864736f6c634300081c0033",
  "linkReferences": {},
  "deployedLinkReferences": {},
  "immutableReferences": {},
  "inputSourceName": "project/contracts/AgentWallet.sol",
  "buildInfoId": "solc-0_8_28-862ef7ae28f1b6f573f7306c7b33716a99eece7e"
}